:020000040000FA
:0600000078EF0BF0120086
:0608000078EF0BF012007E
:0608080012EF09F01200DE
:0608180012EF09F01200CE
:02082A000000CC
:04082C000401105162
:10083000600BE842E842E842E842E842000901E091
:1008400055D01151070A51E00B0A4FE0070A40E06A
:10085000010A2CE00B0A28E0020A26E0030A22E043
:10086000080A12E0010A0EE00F0A0AE0030A01E09A
:100870003CD00001010EF46F0001040EFB6F36D076
:1008800036D834D090D832D00001010EF46F000178
:10089000FD0EF56F000EF66F0001FC930001010ED6
:1008A000F96F24D0A8D822D0F4D820D00001010EAE
:1008B000F46F040114510001F56FF66BFE0EF5277D
:1008C000000EF6230001FC930001010EF96F0ED01B
:1008D0000001010EF46F04011451EA6AFE0FE96E83
:1008E000000EEA2212C4EFFF01D000D01200800EE9
:1008F0000401105D57E11351030A34E0010A10E0CE
:10090000030A01E04DD00001010EF46F0001400E1A
:10091000F56F150EF66F120E0001F96FFA6B40D0ED
:100920000001010EF46F04011251F66EF76AD890BF
:10093000F636F736140EF626160EF7220900F5CF16
:10094000F5F00A00F5CFF6F0020E0001F76AF52582
:10095000F66EF651F7220900F5CFF9F00A00F5CF4F
:10096000FAF01ED00001010EF46F04011251F66E70
:10097000F76AD890F636F736180EF626160EF722D6
:100980000900F5CFF5F00A00F5CFF6F0F5C0F6FF57
:10099000F6C0F7FF0800F5500001F96FFA6B00D0C0
:1009A0000001FC8312000001010EF46F0F0EE66ED1
:1009B000710EE66E0F0EE66E8BEC0AF0E552E55214
:1009C000E552010EE66EFE0EE66E000EE66E8BEC54
:1009D0000AF0E552E552E55212C4FDF0040112514D
:1009E00004E10001050EFB6F05D00001060EFB6F50
:1009F00099EC07F012000401186B196B04011051F7
:100A00001F0B020A14E0030A0EE0010A01E033D0D2
:100A10000001010EF46F040118810001FCA102D055
:100A20000401188328D00001010EF46F24D00001C6
:100A3000010EF46F040114510F0B080DF350036AFB
:100A4000000F026E040E03221451800B01E0010E10
:100A5000040DF35000010224F76F000E0320F86F1D
:100A6000F7C0E9FFF8C0EAFFEF50040B03E0040110
:100A7000010E186F00D00001F4050AE10001180E04
:100A8000F56F040EF66F0001FC930001020EF96F82
:100A900012000401120510E110511F0B00090CE1B6
:100AA0000001010EF46F030E0401115D03E100016A
:100AB000FC8102D00001FC91040112513AE1105175
:100AC0001F0B020836E114510F0B000932E0000140
:100AD000010EF46F040114510F0B080DF350036A5B
:100AE000000F026E040E03221451800B01E0010E70
:100AF000040DF35000010224F76F000E0320F86F7D
:100B0000030E0401115D07E1840EF7C0E9FFF8C090
:100B1000EAFFEF6E0ED014AF06D0F7C0E9FFF8C0C1
:100B2000EAFFEF6A06D0880EF7C0E9FFF8C0EAFFD7
:040B3000EF6E120052
:0C0B34006C5002E0000E01D0010E000920
:100B40000BE0040100513C0BE842E8420D0802E1D1
:100B50000CD801D040D808D06C5002E0000E01D073
:100B6000010E040901E047D81200D9CFE6FFE1CF1A
:100B7000D9FFE6520001F36BF46BF96BFA6B16ECDC
:100B800004F0DF6ADF50026E036A010E025C000EA1
:100B900003581BE20001F45101E017D0F76ADF347B
:100BA000FE0BF736F66E1E0EF626160EF72209001D
:100BB000F5CF02F00800F5CF03F004D003C0FAFF30
:100BC0000250F96EFBDFDF2ADDD7DDD8E552E552B2
:100BD000E7CFD9FF1200020E0001F35D0AE196D8BB
:100BE000040100BD03D0C80E006F02D0880E006F54
:100BF00001D00FD91200040E0001FB5D0AE112C4FE
:100C00006EFF6E50000803E2050EFB6F02D0030E6C
:100C1000FB6F0001F3050AE10BD8040104BD03D00A
:100C2000C80E046F02D0880E046F01D0F2D81200F3
:100C3000D9CFE6FFE1CFD9FF020EE1260001080E71
:100C4000F95D000EFA5905E2F9C0DEFFFAC0DDFFDA
:100C500003D0080EDE6EDD6A040104930491010ED8
:100C6000DB500413DFCF05F4000EDB500001F95F09
:100C7000010EDB50FA5B180EF76F040EF86F0001DF
:100C8000FCA31ED0D9CFE9FFDACFEAFFEE50ED107A
:100C900016E0F5C0F6FFF6C0F7FF0800F550F7C004
:100CA000E9FFF8C0EAFFEF6E0001F72B000EF82312
:100CB000F52BF623DF06010E01E2DB06E3D71CD09D
:100CC000D9CFE9FFDACFEAFFEE50ED1015E0F5C01D
:100CD000E9FFF6C0EAFFEF50F7C0E9FFF8C0EAFF0E
:100CE000EF6E0001F72B000EF823F52BF623DF063D
:100CF000010E01E2DB06E4D7020EE15C02E2E16AEA
:100D0000E552E16EE552E7CFD9FF1200D9CFE6FFF9
:100D1000E1CFD9FF020EE126030E04010015E76EB4
:100D2000010EE7CFDBFF01C4DFFFDE500001F92732
:100D3000DD50FA23180EF56F040EF66FD9CFE9FFD8
:100D4000DACFEAFFEE50ED1014E0F5C0E9FFF6C08F
:100D5000EAFFEF50F7C0E9FFF8C0EAFFEF6EF72BAC
:100D6000000EF823F52BF623DF06010E01E2DB0669
:100D7000E5D7020EE15C02E2E16AE552E16EE5527E
:100D8000E7CFD9FF12000001F4510CE10401080E75
:100D9000016F100E026F040E036F840E006F0401CA
:100DA000046F35D0040110AF22D00001F9510401C5
:100DB000165D0001FA510401175904E216C4F9F056
:100DC00017C4FAF035DF0001010EF36F0401080EBD
:100DD000016F100E026F040E036F800E006F04018E
:100DE000180E066F040E076FC80E046F10D00001B6
:100DF000020EF36F0401056BC80E046F0401080EA8
:100E0000016F180E026F040E036FC80E006F6D980D
:100E100012000001F36B0401080E016F100E026F47
:0E0E2000040E036F880E006F0401046B1200B5
:020E2E000401BD
:100E300010511F0B010801E079D0145101E076D068
:100E4000060E115D2EE11351230A28E0010A13E07A
:100E5000030A01E024D00001020EF46F0001FD0539
:100E600005E10001640EF56F150EF66F090E000125
:100E7000F96FFA6B14D00001020EF46F0001FD054A
:100E800005E10001E50EF56F150EF66F0001FD0599
:100E900004E12F0E0001F96FFA6B01D000D00001C0
:100EA000FC8304011051600BE842E842E842E8424A
:100EB000E842010801E03AD011510B0A31E0080A7A
:100EC00021E0090A19E0080A09E00B0A05E0080A0E
:100ED00001E02CD02CD82AD02BD828D00001020E2B
:100EE000F46F0001000EF56F010EF66F0001FC9328
:100EF0000001010EF96F1AD00001020EF46F13C445
:100F000000F114D00001020EF46F0001010EF56F24
:100F1000010EF66F0001FC930001010EF96F06D07F
:100F20000001020EF46F12C401F100D01200120091
:100F300012000101026B1E0E716E0401400E096F5A
:100F4000200E0A6F040E0B6F880E086F0401600EEE
:100F50000E6F040E0F6F400E0C6F1200D9CFE6FF1C
:100F6000E1CFD9FFE652FC0EDB50400805E2400E0F
:100F7000F36EFC0EF3CFDBFFDF6AFC0EDB50DF5CB1
:100F800019E2DF50E76EFD0EDBCFE9FFFE0EDBCF8F
:100F9000EAFFE750E926000EEA22EF50E66EDF5046
:100FA000EA6A600FE96E040EEA22E552E750EF6E3E
:100FB000DF2AE3D7FC0EDBCF0DF4400E04010C1743
:100FC0000C7D880E0C13E552E552E7CFD9FF1200D5
:100FD000D9CFE6FFE1CFD9FF0101026B040108BFC1
:100FE00030D0FC0EDBCF02F00951D880025403E26E
:100FF000FC0E09C4DBFF0101026BFC0EDB50025D3D
:1010000019E20251EA6A200FE96E040EEA22EF505B
:10101000E66E0251E76EFD0EDBCFE9FFFE0EDBCF81
:10102000EAFFE750E926000EEA22E552E750EF6EAC
:10103000022BE3D70401400E096F0817087D880EC4
:1010400008130101025100D0E552E7CFD9FF120089
:10105000829003EC09F008EC09F0829003EC09F0AF
:1010600008EC09F0829003EC09F008EC09F082909A
:1010700003EC09F008EC09F0829003EC09F008ECAD
:1010800009F0829003EC09F008EC09F0829003EC7F
:1010900009F008EC09F0829003EC09F008EC09F083
:1010A000829003EC09F008EC09F0829003EC09F05F
:1010B00008EC09F0829003EC09F008EC09F082904A
:1010C00003EC09F008EC09F0829003EC09F008EC5D
:1010D00009F0829003EC09F008EC09F0829003EC2F
:1010E00009F008EC09F0829003EC09F008EC09F033
:1010F000829003EC09F008EC09F0829003EC09F00F
:1011000008EC09F0829003EC09F008EC09F08290F9
:1011100003EC09F008EC09F0829003EC09F008EC0C
:1011200009F0829003EC09F008EC09F0828003ECEE
:1011300009F008EC09F0828003EC09F012008290BB
:101140000000000003EC09F063B101D003D00000FF
:10115000828002D0829000D003EC09F063B301D00A
:1011600003D00000828002D0829000D003EC09F00E
:1011700063B501D003D00000828002D0829000D0FD
:1011800003EC09F063B701D003D00000828002D0E5
:10119000829000D003EC09F063B901D003D00000C5
:1011A000828002D0829000D003EC09F063BB01D0B2
:1011B00003D00000828002D0829000D003EC09F0BE
:1011C00063BD01D003D00000828002D0829000D0A5
:1011D00003EC09F063BF01D003D00000828002D08D
:1011E000829000D003EC09F0000000000000000035
:1011F000828003EC09F008EC09F0828003EC09F02E
:1012000008EC09F012000C0EFF6FFF2FFED7120042
:1012100000000000120000EE00F00F0EEE6AEA621D
:04122000FDD71200E4
:0C122400D8CFE4FFE0CFE4FFE46EDACFA7
:10123000E4FFE2CFDAFFE652F2A407D0F294D59EA3
:10124000D76AD66A0001010EE86FE552E5CFDAFFF2
:10125000E550E5CFE0FFE5CFD8FF10008B6A949C06
:10126000949E9482949094840001606B400E605D23
:1012700009E26051EA6AA80FE96E000EEA22EF6AFD
:10128000602BF4D7010ED56ED76AD66AF294F28A33
:10129000F29ED58EE86B616B400E626F1200F28E8B
:1012A0000001E85104E0E86B0AD88B7CD58EF29EF1
:1012B000060E0001FB5D01E201D01AD8120028ECF5
:1012C00008F00001636B9FEC08F00001606B625155
:1012D000605D0DE26051EA6AA80FE96E000EEA2235
:1012E000EFCF63F09FEC08F00001602BF0D7120005
:1012F000400EE66E680EE66E000EE66EE8EC07F055
:10130000E552E552E552000941E00001010E676F28
:101310008B7E6851020A33E0030A2EE0010A01E0E5
:1013200035D069C065F069516A25666F6651026EF5
:10133000036A033404E20250FF08000E035401E282
:10134000666965C060F06651605D15E26551605D7B
:10135000030FEA6A680FE96E000EEA22EF50E66EAC
:101360006051EA6AA80FE96E000EEA22E552E750E2
:10137000EF6E602BE8D70AD069C062F007D069052C
:1013800002E0000E01D0010E616F00D00001675134
:1013900013E0615111E004010C51800B0DE1400E8E
:1013A000E66EA80EE66E000EE66EAEEC07F0E552B5
:0A13B000E552E5520001676B1200E0
:0613BA006DA60FD802D061
:1013C0006DB613D80001FB0508E16DBA06D0686A56
:1013D000696A69806988020EFB6F12006D6A696A2A
:1013E0006D860001010EFB6F12006D6A696A0001D3
:1013F000FB6B1200F5EF09F00001FB5101E13AD05F
:101400006850040B04E06950040B01E041D86DB250
:1014100031D06850010B04E06950010B01E059D84C
:101420006850100B04E06950100B01E024D868509C
:10143000400B04E06950400B01E040D86850200B9D
:1014400004E06950200B01E03BD86850020B04E037
:101450006950020B01E03BD8030E0001FB5D01E285
:1014600009D06850080B06E06950080B03E09AECBD
:1014700005F068961200698468986D82A19AF290CE
:10148000A08AF2860300F2B007D8A09AF296120062
:101490006D926994689412000001FCA10ED0F8DFEF
:1014A0006D840101080E036F070E046F0307000E21
:1014B000045B03510411FAE16D941200689C120060
:1014C00070A003D009EC07F07090689A120068923F
:1014D00012006A6A686A9F0E6B6E7B0E696E6E6A96
:1014E0000F0EE66E710EE66E0F0EE66E14D8E55224
:1014F000E552E552160E706E68A602D06896FCD7CB
:101500006D9809EC07F00001FC910001FD6B0001F2
:10151000030EFB6F1200D9CFE6FFE1CFD9FFFD0E1E
:10152000DBCFE9FFFE0EDBCFEAFFFC0EDB5004E071
:10153000EE6AFC0EDB06F9D7E552E7CFD9FF1200C1
:101540001201000200000008D80434120100010258
:10155000000109022900010100A032090400000273
:1015600003000000092103010001222F000705816B
:10157000034000010705010340000104030904368C
:101580000343006C0065006D0065006E0074002E62
:10159000006200640072002000500072006F00645E
:1015A0000075006300740069006F006E0020003B4E
:1015B000002D00290030035500530042002D004447
:1015C000004D005800200049006E00740065007254
:1015D00000660061006300650020002800480049A3
:1015E000004400290006A0FF0901A101090315001C
:1015F00026FF007540950881020904150026FF00AA
:101600007540950891020905150026FF0075409563
:1016100008B102C0521552157B157F15B5152E0E57
:101620002A0EF66E080EF76E000EF86E0001090025
:10163000F550EE6F0900F550EF6F03E1EE6701D052
:101640003DD00900F550E96F0900F550EA6F090037
:10165000F550EB6F09000900F550E96E0900F550EF
:10166000EA6E090009000900F550EC6F0900F55019
:10167000ED6F09000900F6CFF0F0F7CFF1F0F8CFE9
:10168000F2F0E9C0F6FFEAC0F7FFEBC0F8FF000197
:10169000EC5302E1ED5307E00900F550EE6EEC0764
:1016A000F8E2ED07F9D7F0C0F6FFF1C0F7FFF2C09E
:0E16B000F8FF0001EE07000EEF5BBFD712003F
:0216BE0005D84D
:1016C00010D84FEC09F0FCD712000F0EC112140E07
:1016D0006F6E0001FB6B0001FC6B0001FD6B2EEFD8
:1016E00009F0DDEC09F06FBE02D0FCEC09F012004D
:1016F00013EE00F023EE00F0F86A019C10EC0BF002
:0C17000086EC0BF05FEC0BF0FBD7120046
:02170C001200C9
:00000001FF
