:020000040000FA
:060000007FEF0BF012007F
:060800007FEF0BF0120077
:020808001200DC
:0608180012EF09F01200CE
:02082A000000CC
:04082C000401105162
:10083000600BE842E842E842E842E842000901E091
:1008400055D01151070A51E00B0A4FE0070A40E06A
:10085000010A2CE00B0A28E0020A26E0030A22E043
:10086000080A12E0010A0EE00F0A0AE0030A01E09A
:100870003CD00001010EF56F0001040EFC6F36D074
:1008800036D834D090D832D00001010EF56F000177
:10089000FE0EF66F000EF76F0001FD930001010ED2
:1008A000FA6F24D0A8D822D0F4D820D00001010EAD
:1008B000F56F040114510001F66FF76BFF0EF62778
:1008C000000EF7230001FD930001010EFA6F0ED018
:1008D0000001010EF56F04011451EA6AFF0FE96E81
:1008E000000EEA2212C4EFFF01D000D01200800EE9
:1008F0000401105D57E11351030A34E0010A10E0CE
:10090000030A01E04DD00001010EF56F00014E0E0B
:10091000F66F150EF76F120E0001FA6FFB6B40D0E9
:100920000001010EF56F04011251F66EF76AD890BE
:10093000F636F736220EF626160EF7220900F5CF08
:10094000F6F00A00F5CFF7F0020E0001F76AF6257F
:10095000F66EF751F7220900F5CFFAF00A00F5CF4D
:10096000FBF01ED00001010EF56F04011251F66E6E
:10097000F76AD890F636F736260EF626160EF722C8
:100980000900F5CFF6F00A00F5CFF7F0F6C0F6FF54
:10099000F7C0F7FF0800F5500001FA6FFB6B00D0BD
:1009A0000001FD8312000001010EF56F0F0EE66ECF
:1009B000710EE66E0F0EE66E92EC0AF0E552E5520D
:1009C000E552010EE66EFF0EE66E000EE66E92EC4C
:1009D0000AF0E552E552E55212C4FEF0040112514C
:1009E00004E10001050EFC6F05D00001060EFC6F4E
:1009F00099EC07F012000401186B196B04011051F7
:100A00001F0B020A14E0030A0EE0010A01E033D0D2
:100A10000001010EF56F040118810001FDA102D053
:100A20000401188328D00001010EF56F24D00001C5
:100A3000010EF56F040114510F0B080DF350036AFA
:100A4000000F026E040E03221451800B01E0010E10
:100A5000040DF35000010224F86F000E0320F96F1B
:100A6000F8C0E9FFF9C0EAFFEF50040B03E004010E
:100A7000010E186F00D00001F5050AE10001180E03
:100A8000F66F040EF76F0001FD930001020EFA6F7E
:100A900012000401120510E110511F0B00090CE1B6
:100AA0000001010EF56F030E0401115D03E1000169
:100AB000FD8102D00001FD91040112513AE1105173
:100AC0001F0B020836E114510F0B000932E0000140
:100AD000010EF56F040114510F0B080DF350036A5A
:100AE000000F026E040E03221451800B01E0010E70
:100AF000040DF35000010224F86F000E0320F96F7B
:100B0000030E0401115D07E1840EF8C0E9FFF9C08E
:100B1000EAFFEF6E0ED014AF06D0F8C0E9FFF9C0BF
:100B2000EAFFEF6A06D0880EF8C0E9FFF9C0EAFFD5
:040B3000EF6E120052
:0C0B34006C5002E0000E01D0010E000920
:100B40000BE0040100513C0BE842E8420D0802E1D1
:100B50000CD801D040D808D06C5002E0000E01D073
:100B6000010E040901E047D81200D9CFE6FFE1CF1A
:100B7000D9FFE6520001F46BF56BFA6BFB6B16ECD8
:100B800004F0DF6ADF50026E036A010E025C000EA1
:100B900003581BE20001F55101E017D0F76ADF347A
:100BA000FE0BF736F66E2C0EF626160EF72209000F
:100BB000F5CF02F00800F5CF03F004D003C0FAFF30
:100BC0000250F96EFBDFDF2ADDD7DDD8E552E552B2
:100BD000E7CFD9FF1200020E0001F45D0AE196D8BA
:100BE000040100BD03D0C80E006F02D0880E006F54
:100BF00001D00FD91200040E0001FC5D0AE112C4FD
:100C00006EFF6E50000803E2050EFC6F02D0030E6B
:100C1000FC6F0001F4050AE10BD8040104BD03D008
:100C2000C80E046F02D0880E046F01D0F2D81200F3
:100C3000D9CFE6FFE1CFD9FF020EE1260001080E71
:100C4000FA5D000EFB5905E2FAC0DEFFFBC0DDFFD6
:100C500003D0080EDE6EDD6A040104930491010ED8
:100C6000DB500413DFCF05F4000EDB500001FA5F08
:100C7000010EDB50FB5B180EF86F040EF96F0001DC
:100C8000FDA31ED0D9CFE9FFDACFEAFFEE50ED1079
:100C900016E0F6C0F6FFF7C0F7FF0800F550F8C001
:100CA000E9FFF9C0EAFFEF6E0001F82B000EF9230F
:100CB000F62BF723DF06010E01E2DB06E3D71CD09B
:100CC000D9CFE9FFDACFEAFFEE50ED1015E0F6C01C
:100CD000E9FFF7C0EAFFEF50F8C0E9FFF9C0EAFF0B
:100CE000EF6E0001F82B000EF923F62BF723DF0639
:100CF000010E01E2DB06E4D7020EE15C02E2E16AEA
:100D0000E552E16EE552E7CFD9FF1200D9CFE6FFF9
:100D1000E1CFD9FF020EE126030E04010015E76EB4
:100D2000010EE7CFDBFF01C4DFFFDE500001FA2731
:100D3000DD50FB23180EF66F040EF76FD9CFE9FFD5
:100D4000DACFEAFFEE50ED1014E0F6C0E9FFF7C08D
:100D5000EAFFEF50F8C0E9FFF9C0EAFFEF6EF82BA9
:100D6000000EF923F62BF723DF06010E01E2DB0666
:100D7000E5D7020EE15C02E2E16AE552E16EE5527E
:100D8000E7CFD9FF12000001F5510CE10401080E74
:100D9000016F100E026F040E036F840E006F0401CA
:100DA000046F35D0040110AF22D00001FA510401C4
:100DB000165D0001FB510401175904E216C4FAF054
:100DC00017C4FBF035DF0001010EF46F0401080EBB
:100DD000016F100E026F040E036F800E006F04018E
:100DE000180E066F040E076FC80E046F10D00001B6
:100DF000020EF46F0401056BC80E046F0401080EA7
:100E0000016F180E026F040E036FC80E006F6D980D
:100E100012000001F46B0401080E016F100E026F46
:0E0E2000040E036F880E006F0401046B1200B5
:020E2E000401BD
:100E300010511F0B010801E079D0145101E076D068
:100E4000060E115D2EE11351230A28E0010A13E07A
:100E5000030A01E024D00001020EF56F0001FE0537
:100E600005E10001720EF66F150EF76F090E000115
:100E7000FA6FFB6B14D00001020EF56F0001FE0546
:100E800005E10001F30EF66F150EF76F0001FE0588
:100E900004E12F0E0001FA6FFB6B01D000D00001BE
:100EA000FD8304011051600BE842E842E842E84249
:100EB000E842010801E03AD011510B0A31E0080A7A
:100EC00021E0090A19E0080A09E00B0A05E0080A0E
:100ED00001E02CD02CD82AD02BD828D00001020E2B
:100EE000F56F0001000EF66F010EF76F0001FD9324
:100EF0000001010EFA6F1AD00001020EF56F13C443
:100F000000F114D00001020EF56F0001010EF66F22
:100F1000010EF76F0001FD930001010EFA6F06D07C
:100F20000001020EF56F12C401F100D01200120090
:100F300012000101026B1E0E716E0401400E096F5A
:100F4000200E0A6F040E0B6F880E086F0401600EEE
:100F50000E6F040E0F6F400E0C6F1200D9CFE6FF1C
:100F6000E1CFD9FFE652FC0EDB50400805E2400E0F
:100F7000F36EFC0EF3CFDBFFDF6AFC0EDB50DF5CB1
:100F800019E2DF50E76EFD0EDBCFE9FFFE0EDBCF8F
:100F9000EAFFE750E926000EEA22EF50E66EDF5046
:100FA000EA6A600FE96E040EEA22E552E750EF6E3E
:100FB000DF2AE3D7FC0EDBCF0DF4400E04010C1743
:100FC0000C7D880E0C13E552E552E7CFD9FF1200D5
:100FD000D9CFE6FFE1CFD9FF0101026B040108BFC1
:100FE00030D0FC0EDBCF02F00951D880025403E26E
:100FF000FC0E09C4DBFF0101026BFC0EDB50025D3D
:1010000019E20251EA6A200FE96E040EEA22EF505B
:10101000E66E0251E76EFD0EDBCFE9FFFE0EDBCF81
:10102000EAFFE750E926000EEA22E552E750EF6EAC
:10103000022BE3D70401400E096F0817087D880EC4
:1010400008130101025100D0E552E7CFD9FF120089
:10105000829003EC09F008EC09F0829003EC09F0AF
:1010600008EC09F0829003EC09F008EC09F082909A
:1010700003EC09F008EC09F0829003EC09F008ECAD
:1010800009F0829003EC09F008EC09F0829003EC7F
:1010900009F008EC09F0829003EC09F008EC09F083
:1010A000829003EC09F008EC09F0829003EC09F05F
:1010B00008EC09F0829003EC09F008EC09F082904A
:1010C00003EC09F008EC09F0829003EC09F008EC5D
:1010D00009F0829003EC09F008EC09F0829003EC2F
:1010E00009F008EC09F0829003EC09F008EC09F033
:1010F000829003EC09F008EC09F0829003EC09F00F
:1011000008EC09F0829003EC09F008EC09F08290F9
:1011100003EC09F008EC09F0829003EC09F008EC0C
:1011200009F0829003EC09F008EC09F0828003ECEE
:1011300009F008EC09F0828003EC09F012008290BB
:101140000000000003EC09F063B101D003D00000FF
:10115000828002D0829000D003EC09F063B301D00A
:1011600003D00000828002D0829000D003EC09F00E
:1011700063B501D003D00000828002D0829000D0FD
:1011800003EC09F063B701D003D00000828002D0E5
:10119000829000D003EC09F063B901D003D00000C5
:1011A000828002D0829000D003EC09F063BB01D0B2
:1011B00003D00000828002D0829000D003EC09F0BE
:1011C00063BD01D003D00000828002D0829000D0A5
:1011D00003EC09F063BF01D003D00000828002D08D
:1011E000829000D003EC09F0000000000000000035
:1011F000828003EC09F008EC09F0828003EC09F02E
:1012000008EC09F012000C0E056F052FFED7120036
:1012100000000000120000EE00F00F0EEE6AEA621D
:04122000FDD71200E4
:0C122400D8CFE4FFE0CFE4FFE46EDACFA7
:10123000E4FFE2CFDAFFE6529EA20CD09E92040EAB
:101240000001E85D02E2E82B05D0E86B010EE96FD2
:10125000CA94CC6AE552E5CFDAFFE550E5CFE0FF6E
:10126000E5CFD8FF10000001606B400E605D09E221
:101270006051EA6AA80FE96E000EEA22EF6A602B5D
:10128000F4D7D08E9E6A9D829F927B0ECA6EF28E9C
:10129000F28CE86BE96B8B6A949C949E94849368BF
:1012A000616B400E626F646BCC6ACA8412000001ED
:1012B000E90504E1E96B8B8CCA848B9C060E000166
:1012C000FC5D01E201D01AD8120028EC08F0000100
:1012D000636B9FEC08F00001606B6251605D0DE292
:1012E0006051EA6AA80FE96E000EEA22EFCF63F0C0
:1012F0009FEC08F00001602BF0D71200400EE66E64
:10130000680EE66E000EE66EE8EC07F0E552E55278
:10131000E552000942E08B8E0001010E676F6851B3
:10132000020A33E0030A2EE0010A01E035D069C069
:1013300065F069516A25666F6651026E036A03346F
:1013400004E20250FF08000E035401E2666965C022
:1013500060F06651605D15E26551605D030FEA6AF9
:10136000680FE96E000EEA22EF50E66E6051EA6AFD
:10137000A80FE96E000EEA22E552E750EF6E602BEF
:10138000E8D70AD069C062F007D0690502E0000E14
:1013900001D0010E616F00D08B9E0001675113E0F8
:1013A000615111E004010C51800B0DE1400EE66E1D
:1013B000A80EE66E000EE66EAEEC07F0E552E552C2
:0813C000E5520001676B120009
:0813C8006DA60FD802D06DB62E
:1013D00013D80001FC0508E16DBA06D0686A696A95
:1013E00069806988020EFC6F12006D6A696A6D86F9
:1013F0000001010EFC6F12006D6A696A0001FC6B4E
:101400001200FCEF09F00001FC5101E13AD06850F4
:10141000040B04E06950040B01E041D86DB231D0F7
:101420006850010B04E06950010B01E059D8685085
:10143000100B04E06950100B01E024D86850400BF9
:1014400004E06950400B01E040D86850200B04E0F4
:101450006950200B01E03BD86850020B04E0695052
:10146000020B01E03BD8030E0001FC5D01E209D054
:101470006850080B06E06950080B03E09AEC05F091
:1014800068961200698468986D82A19AF290A08A89
:10149000F2860300F2B007D8A09AF29612006D927D
:1014A0006994689412000001FDA10ED0F8DF6D84EC
:1014B0000101080E036F070E046F0307000E045BA3
:1014C00003510411FAE16D941200689C120070A09F
:1014D00003D009EC07F07090689A1200689212002D
:1014E0006A6A686A9F0E6B6E7B0E696E6E6A0F0E7B
:1014F000E66E710EE66E0F0EE66E14D8E552E552FA
:10150000E552160E706E68A602D06896FCD76D98EC
:1015100009EC07F00001FD910001FE6B0001030ED4
:10152000FC6F1200D9CFE6FFE1CFD9FFFD0EDBCF74
:10153000E9FFFE0EDBCFEAFFFC0EDB5004E0EE6AB3
:0E154000FC0EDB06F9D7E552E7CFD9FF12000B
:02154E00120188
:10155000000200000008D80434120100010200015A
:1015600009022900010100A0320904000002030061
:101570000000092103010001222F0007058103401B
:101580000001070501034000010403090436034379
:10159000006C0065006D0065006E0074002E006236
:1015A00000640072002000500072006F006400753B
:1015B000006300740069006F006E0020003B002D86
:1015C00000290030035500530042002D0044004D17
:1015D000005800200049006E00740065007200662B
:1015E00000610063006500200028004800490044B5
:1015F00000290006A0FF0901A1010903150026FF2B
:10160000007540950881020904150026FF00754009
:10161000950891020905150026FF0075409508B14F
:0E16200002C06015601589158D15C3152E0EBC
:02162E002A0E82
:10163000F66E080EF76E000EF86E00010900F55008
:10164000EF6F0900F550F06F03E1EF6701D03DD077
:101650000900F550EA6F0900F550EB6F0900F550ED
:10166000EC6F09000900F550E96E0900F550EA6ECB
:10167000090009000900F550ED6F0900F550EE6F03
:1016800009000900F6CFF1F0F7CFF2F0F8CFF3F050
:10169000EAC0F6FFEBC0F7FFECC0F8FF0001ED5326
:1016A00002E1EE5307E00900F550EE6EED07F8E2B7
:1016B000EE07F9D7F1C0F6FFF2C0F7FFF3C0F8FF6D
:0C16C0000001EF07000EF05BBFD7120026
:0416CC0005D810D855
:1016D00057EC09F0FCD712000F0EC112140E6F6EFA
:1016E0000001FC6B0001FD6B0001FE6B33EF09F0A4
:0E16F000E4EC09F06FBE02D003EC0AF0120029
:0216FE0013EEE9
:1017000000F023EE00F0F86A019C17EC0BF08DEC72
:0A1710000BF066EC0BF0FBD71200A3
:02171A001200BB
:00000001FF
